S01200004E6978696520547562652E7372656365
S113000024C033C032C031C030C02FC02EC02DC078
S11300102CC02BC02AC0DFC328C027C026C025C0DF
S113002024C023C022C021C020C01FC01EC01DC0C8
S11300301CC01BC01AC0BDC1BEC1BFC1C0C1C1C1AB
S1130040C2C1C3C1C4C1C5C1C6C111241FBECFEF43
S1130050D4E0DEBFCDBF21E0A0E0B1E001C01D923D
S1130060AC31B207E1F766D384C6CACF6623B9F0D0
S1130070FC01615070E06F5F7F4F680F791F80E073
S11300804CE8219198E0382F3227869530FD84275B
S113009026959150C1F7E617F70799F7089580E080
S11300A008957F928F929F92AF92BF92CF92DF92E8
S11300B0EF92FF920F931F93CF93DF937C016B0119
S11300C05A01722E4801012B19F40CEC3AD50FC0D9
S11300D005E537D5E40188E0880E911C0991272DA8
S11300E0A501B601C7012DD5C815D905B9F7DF910A
S11300F0CF911F910F91FF90EF90DF90CF90BF9021
S1130100AF909F908F907F900895BF92CF92DF928F
S1130110EF92FF920F931F93CF93DF93EC017B0138
S11301206A01B22ED2D4813061F02B2DA601B70121
S1130130CE01B7DF04E42B2DA601B701CE0101D512
S113014080E0DF91CF911F910F91FF90EF90DF90AE
S1130150CF90BF9008957F928F929F92AF92BF925B
S1130160CF92DF92EF92FF920F931F93CF93DF937F
S11301706C015B014A01722EA8D4813081F1272DD4
S1130180A401B501C6018DDF0EEB272DA401B50135
S1130190C601D7D4E7018701075F1F4F272DA401AC
S11301A0B501C60105D58993C017D107B9F7F70181
S11301B02081318142815381648175818681978157
S11301C0A0E0BDD549F068E0C70150DFF701908594
S11301D0891304C080E003C083E001C082E0DF91A2
S11301E0CF911F910F91FF90EF90DF90CF90BF9030
S11301F0AF909F908F907F9008956F927F928F928F
S11302009F92AF92CF92EF92FF920F931F93CF934F
S1130210DF93EC014B013A01F22E57D48130F1F017
S11302202F2DA301B401CE013CDF0EE42F2DA30139
S1130230B401CE0186D40E2D2F2DA301B401CE011D
S113024080D40C2D2F2DA301B401CE017AD40A2D14
S11302502F2DA301B401CE0174D480E0DF91CF919E
S11302601F910F91FF90EF90CF90AF909F908F9040
S11302707F906F900895CF92DF92EF92FF920F9349
S11302801F93CF93DF93CDB7DEB729970FB6F894BA
S1130290DEBF0FBECDBF6701FE0131967F015BDF7C
S11302A0882321F0F601118210820BC08A8190E02C
S11302B0982F88272981820F911DF60191838083CD
S11302C080E029960FB6F894DEBF0FBECDBFDF9154
S11302D0CF911F910F91FF90EF90DF90CF900895F1
S11302E080E28093B8000895ECEBF0E0108284EA99
S11302F0808380818823ECF7089584E98093BC008F
S113030008958093BB0084E88093BC00ECEBF0E09C
S113031080818823ECF70895CF93DF93C82FD62FDD
S1130320E3DF8D2FEEDF8C2FECDF84E98093BC00BC
S1130330DF91CF91089584EC8093BC00ECEBF0E066
S113034080818823ECF78091BB00089584E8809332
S1130350BC00ECEBF0E080818823ECF78091BB00DB
S11303600895882324F06EE5D7DF80E0089582E0C5
S11303700895739871982E982F985D98729887ECC9
S113038090E00197F1F700C00000089585B18A7FDD
S113039085B988B1817F88B98BB187728BB9709820
S11303A0089590E08A309105B8F4FC01E55EFF4FB2
S11303B00994429A0895419A08952A9A0895709A40
S11303C00895289A08955F9A08955E9A08955C9A0C
S11303D008955B9A0895439A0895E1E1F1E010824B
S11303E080910401828380910A018183CF0192D498
S11303F00895EF92FF920F931F9300E010E022E024
S113040049E250E06AE270E08BE290E07EDE7894AC
S11304102FE789EA93E0215080409040E1F700C043
S113042000000F2EF6E0EF2EF1E0FF2EF02D22E07B
S113043049E250E06AE270E08BE290E01CDF8091D8
S113044006019091070195958795959587959595C2
S113045087959595879590930701809306018093DE
S1130460050178941F910F91FF90EF9008950F2E3E
S1130470F5E0DF2EF02DC1E06894EE24E1F80F2EB4
S1130480F7E1BF2EF02D0F2EFBE3CF2EF02D689455
S1130490FF24F2F805E11BE2D1E41B9959C02FEFC8
S11304A081EE94E0215080409040E1F700C00000CC
S11304B080910C018F5F80930C011B9B36C090913F
S11304C00B019230F1F028F4992341F09130B1F00E
S11304D02CC09430E1F0953029F127C090910E01A1
S11304E0911106C010921001C0930E0182DF1DC04D
S11304F010920E01843109F0C8C023C0E0920B01B0
S1130500BEC010920B0169DFC09300010EC0C093FE
S1130510000110920B018091000060911A0190E09B
S11305201AD403C0C0930B01AAC080910C0184317A
S113053079F480910B0181119DC080910E0181118C
S11305409CC0D0920B0110920C011092000192C039
S11305501C9934C080910B01882381F12FEF81EE27
S113056094E0215080409040E1F700C000001C9BC3
S113057025C080910B01823079F08430C1F0813044
S1130580E9F4809104018F5F883119F080930401AC
S113059015C01092040112C080910A018F5F8C3340
S11305A019F080930A010AC010920A0107C08091D1
S11305B01A0191E0980F90931A01D3DE1D9938C067
S11305C02FEF81EE94E0215080409040E1F700C08D
S11305D000001D9B2DC080910B01813061F028F03B
S11305E08230A1F08430E9F023C0489B02C05898BF
S11305F01FC0589A1DC080910401811103C0B0929C
S1130600040116C081508093040112C080910A0134
S1130610811103C0C0920A010BC0815080930A016A
S113062007C080911A019FEF980F90931A0199DEE9
S11306301D9933CF1C9931CF2FEF81EE94E02150D7
S113064080409040E1F700C0000080910C018F5F72
S113065080930C01843109F020CFF0920B011092A9
S1130660000100930F0110930A01D093040110922A
S11306700C0113CF1C9B72CFA1CF83B19FCF80916C
S11306800C01843109F064CFF5CF83B197CF81E1B8
S113069091E028D3E1E1F1E082818093040181813A
S11306A080930A01808180930F019091080189173A
S11306B041F18093080180910E018823F1F0409864
S11306C080910D018F5F80930D018530D1F491DE0F
S11306D010920D01809110018F5F8093100183307F
S11306E030F480910E018F5F80930E010AC08091D7
S11306F00E01815080930E0104C098B181E08927D6
S113070088B980910A0190910101981791F0809322
S1130710010180910D018F5F853019F080930D01E7
S1130720089510920D0181E080930E011092100142
S113073060DE089587B18F6087B98AB18B6F8AB9FB
S113074084B1856C84B98DB18F608DB923982B9A4F
S113075024982C9A25982D9A589A5898599A5998C9
S113076015DE1092000110920D0110921B018FE111
S113077080931A01F6DD10928000E1E8F0E08081B8
S11307808B6080838CE390E0909389008093880051
S1130790EFE6F0E080818260808310920B0181E0BB
S11307A08093000110920E019BDD91D20F2EFFE188
S11307B0AF2EF02DC12CE12C00E010E022E049E244
S11307C050E06AE270E08BE290E017DD60DF78943D
S11307D0109210014CDE1F920F920FB60F9211244B
S11307E02F933F934F935F936F937F938F939F9335
S11307F0AF93BF93EF93FF93809103018F5F809337
S11308000301B7DDC3DD80910301833009F473C0B4
S113081028F4813061F08230B1F131C1853009F4BE
S1130820CEC008F495C0863009F4F4C028C1809184
S11308300B01823018F0843009F036C180910E012A
S1130840823008F031C17398719A80910B01811143
S11308500FC080910E01813059F4809105019DEC07
S1130860899F812D11248695869586959ADD07C1E9
S1130870809104019DEC899F812D11248695869594
S113088086958FDDFCC080910B01823018F0843096
S113089009F00AC180910E01823008F005C17198F7
S11308A02E9A80910B01811115C080910E01813027
S11308B089F4809105019DEC899F912D11249695D1
S11308C096959695990F292F220F220F920F891B27
S11308D068DDD5C0809104019DEC899F912D112480
S11308E0969596959695990F292F220F220F920F80
S11308F0891B57DDC4C080910B01982F9D7F19F08F
S1130900843009F0D1C080910E018D7F09F0CCC0F4
S11309102E982F9A80910B0181110FC080910E01A6
S1130920823059F4809105019DEC899F812D112419
S113093086958695869535DDA2C080910A019DEC49
S1130940899F812D11248695869586952ADD97C0E9
S113095080910B01982F9D7F11F08430F9F48091E0
S11309600E018D7FD9F42F985D9A80910B0181112E
S113097015C080910E01823089F4809105019DECAF
S1130980899F912D1124969596959695990F292FC7
S1130990220F220F920F891B04DD71C080910A017E
S11309A09DEC899F912D1124969596959695990F76
S11309B0292F220F220F920F891BF3DC60C0809134
S11309C00B018B7F09F070C080910E01833011F010
S11309D081116AC05D98729A80910B0181110FC0D8
S11309E080910E01833059F4809105019DEC899F1B
S11309F0812D1124869586958695D3DC40C08091FF
S1130A000F019DEC899F812D1124869586958695ED
S1130A10C8DC35C080910B018B7FA9F580910E0154
S1130A20833011F081112FC07298739A80910B0159
S1130A30811115C080910E01833089F480910501E4
S1130A409DEC899F912D1124969596959695990FD5
S1130A50292F220F220F920F891BA3DC10C0809133
S1130A600F019DEC899F912D11249695969596954D
S1130A70990F292F220F220F920F891B92DC80914C
S1130A800301863089F41092030180911B0191E0E7
S1130A90980F90931B01843639F4809100018130C2
S1130AA009F4F5DD10921B01FF91EF91BF91AF9115
S1130AB09F918F917F916F915F914F913F912F9172
S1130AC00F900FBE0F901F901895CF93DF93DC010A
S1130AD0FB013FB7F8948C91822B8C938081822BFD
S1130AE080839C91822F809598239C93CFEAD4E0B5
S1130AF02197F1F700C0000090818923808387EC5F
S1130B0090E00197F1F700C00000EA018881CFE886
S1130B10D1E02197F1F700C000009C91922B9C93A7
S1130B209081922B9083EFEAF4E03197F1F700C0C3
S1130B3000003FBF282381E009F480E0DF91CF91DA
S1130B4008950F93FC01DB017FB7F89448E050E06F
S1130B5091E0622F60953FB7F8948081822B808367
S1130B608C91822B8C93808186238083802F892390
S1130B7061F085E18A95F1F700008081822B808302
S1130B8085ED8A95F1F700000BC085ED8A95F1F7A4
S1130B9000008081822B808385E08A95F1F7000034
S1130BA03FBF990F41505109B1F67FBF0F9108958E
S1130BB0AF92BF92CF92DF92EF92FF920F931F9367
S1130BC0CF93DF93EC01DB01AFB6F89468E070E0FB
S1130BD031E080E0122F1095DD24D39400E0B12C95
S1130BE0C12CFFB6F8949881922B98839C91922BF8
S1130BF09C9398819123988395E09A95F1F700004E
S1130C009C9191239C93EDE0EA95F1F70000FA01A1
S1130C109081F0EAFA95F1F7FFBE9223ED2DF02FC3
S1130C2011F4EB2DFC2D3E9F70013F9FF00C11241D
S1130C308E29330F61507109A1F6AFBEDF91CF91B8
S1130C401F910F91FF90EF90DF90CF90BF90AF90E6
S1130C500895282F207730E0A901440F551F220F53
S1130C60331F220F331F220F331F240F351F3595D7
S1130C7027953595279535952795359527958F7023
S1130C80820F089540E050E060E07DEC879F312DB5
S1130C901124232F269526952695220F922F990FFE
S1130CA0990F290F821B282F832F86958695869569
S1130CB030E0042E02C0220F331F0A94E2F7622BA5
S1130CC04C5F5F4F4031510509F7862F08950CDBC7
S1130CD080ED17DB8EE015DB80E213DB80E011DBB7
S1130CE00CDB0895CF93DF93EC01FEDA80ED09DB92
S1130CF080E007DBF9DA81ED04DB1DDBAADF888302
S1130D001ADBA7DF898322DBA4DF8A83F6DADF918B
S1130D10CF910895CF93DF93EC01E6DA80EDF1DA19
S1130D2080E0EFDA8881AEDFECDA8981ABDFE9DAE3
S1130D308A81A8DFE6DAE1DADF91CF910895002411
S1130D40A7FD00942A17300540055005600570057D
S1130D50800590050895262FF999FECF1FBA92BDFC
S1130D6081BD20BD0FB6F894FA9AF99A0FBE019688
S1090D700895F894FFCF82
S9030000FC
