S01200004E6978696520547562652E7372656365
S113000024C033C032C031C030C02FC02EC02DC078
S11300102CC02BC02AC0ADC328C027C026C025C011
S113002024C023C022C021C020C01FC01EC01DC0C8
S11300301CC01BC01AC0B5C1B6C1B7C1B8C1B9C1D3
S1130040BAC1BBC1BCC1BDC1BEC111241FBECFEF6B
S1130050D4E0DEBFCDBF21E0A0E0B1E001C01D923D
S1130060AC31B207E1F738D3E3C5CACF382FFC016E
S113007080E04CE89E2F931B961758F4219198E04A
S1130080582F5227869550FD842726959150C1F705
S1130090F1CF08956F927F929F92AF92BF92CF92C9
S11300A0DF92EF92FF920F931F93CF93DF937C0124
S11300B06B015A01922EE801209719F40CECB4D488
S11300C00FC005E5B1D43E0188E0680E711C0991AA
S11300D0292DA501B601C701A7D4C615D705B9F7BF
S11300E0DF91CF911F910F91FF90EF90DF90CF9010
S11300F0BF90AF909F907F906F900895BF92CF92E2
S1130100DF92EF92FF920F931F93CF93DF93EC0153
S11301107B016A01B22E1ED4813061F02B2DA60121
S1130120B701CE01B7DF04E42B2DA601B701CE0140
S11301307BD480E0DF91CF911F910F91FF90EF90DE
S1130140DF90CF90BF9008957F928F929F92AF924D
S1130150BF92CF92DF92EF92FF920F931F93CF93B0
S1130160DF936C015B014A01722EE701F3D3813006
S113017081F1272DA401B501C6018CDF0EEB272DDB
S1130180A401B501C60150D4870189E0E80EF11C31
S1130190272DA401B501C6019CD4F80181938F01D8
S11301A0EE15FF05A9F7288139814A815B816C81AD
S11301B07D818E819F81A0E021D541F068E0CE0150
S11301C055DF9885891304C080E003C083E001C033
S11301D082E0DF91CF911F910F91FF90EF90DF901C
S11301E0CF90BF90AF909F908F907F9008956F9223
S11301F07F928F929F92AF92CF92EF92FF920F9342
S11302001F93CF93DF93EC014B013A01F22EA2D35B
S11302108130F1F02F2DA301B401CE013BDF0EE4B8
S11302202F2DA301B401CE01FFD30E2D2F2DA30139
S1130230B401CE01F9D30C2D2F2DA301B401CE01AD
S1130240F3D30A2D2F2DA301B401CE01EDD380E009
S1130250DF91CF911F910F91FF90EF90CF90AF90CE
S11302609F908F907F906F900895CF92DF92EF923E
S1130270FF920F931F93CF93DF93CDB7DEB72997E8
S11302800FB6F894DEBF0FBECDBF6701FE013196F5
S11302907F015ADF882321F0F601118210820BC0FE
S11302A08A8190E0982F88272981820F911DF60179
S11302B09183808380E029960FB6F894DEBF0FBE49
S11302C0CDBFDF91CF911F910F91FF90EF90DF9001
S11302D0CF90089580E28093B80008951092BC00F6
S11302E084EA8093BC008091BC0087FFFCCF089512
S11302F084E98093BC0008958093BB0084E88093D4
S1130300BC008091BC0087FFFCCF0895CF93DF939E
S1130310C82FD62FE3DF8D2FEFDF8C2FEDDF84E99D
S11303208093BC00DF91CF91089584EC8093BC004E
S11303308091BC0087FFFCCF8091BB00089584E8C6
S11303408093BC008091BC0087FFFCCF8091BB00F0
S1130350089587FD04C06EE5D9DF80E0089582E04A
S11303600895739871982E982F985D98729887ECD9
S113037090E00197F1F700C00000089585B18A7FED
S113038085B988B1817F88B98BB187728BB9709830
S1130390089590E08A309105B8F4FC01E55EFF4FC2
S11303A00994429A0895419A08952A9A0895709A50
S11303B00895289A08955F9A08955E9A08955C9A1C
S11303C008955B9A0895439A0895E1E1F1E010825B
S11303D080910401828380910A018183CF01EEC35D
S11303E0EF92FF920F931F9300E010E022E049E2A6
S11303F050E06AE270E08BE290E080DE78942FE7D0
S113040089EA93E0215080409040E1F700C0000069
S113041086E0E82E81E0F82E22E049E250E06AE22C
S113042070E08BE290E021DF80910601909107015A
S113043024E0959587952A95E1F790930701809399
S113044006018093050178941F910F91FF90EF901E
S1130450089585E0E82EC1E092E0D92E27E1C22E6E
S11304603BE3B32E44E0F42E05E11BE2D1E41B99F7
S113047052C02FEF81EE94E0215080409040E1F78C
S113048000C0000080910C018F5F80930C011B9BC6
S113049030C080910B018230E1F038F4882361F0A0
S11304A0813039F5D0920B0124C08430C1F08530FD
S11304B001F5C0930B011DC080910E01811106C08E
S11304C010921001C0930E018BDF13C010920E0125
S11304D010C010920B0179DFC09300010AC0C093D1
S11304E0000110920B018091000060911A0190E0CC
S11304F091D380910C01843171F480910B018111AD
S11305000AC080910E01811106C0E0920B01109285
S11305100C01109200011C9934C080910B018823B6
S113052081F12FEF81EE94E0215080409040E1F77B
S113053000C000001C9B25C080910B01823079F023
S11305408430C1F08130E9F4809104018F5F8831F7
S113055019F08093040115C01092040112C0809117
S11305600A018F5F8C3319F080930A010AC010923C
S11305700A0107C080911A0191E0980F90931A0123
S1130580E8DE1D9937C02FEF81EE94E021508040C2
S11305909040E1F700C000001D9B2CC080910B012E
S11305A0813099F060F08230D9F0843019F580916F
S11305B01A019FEF980F90931A01CBDE1BC0489B42
S11305C002C0589817C0589A15C08091040181112F
S11305D003C0C09204010EC08150809304010AC07C
S11305E080910A01811103C0B0920A0103C08150B5
S11305F080930A011D993BCF1C9939CF2FEF81EECF
S113060094E0215080409040E1F700C000008091C8
S11306100C018F5F80930C01843109F028CFF09294
S11306200B011092000100930F0110930A01D09363
S1130630040110920C011BCF81E191E0A8D28091BA
S11306401301809304018091120180930A01809127
S1130650110180930F0190910801891721F1809372
S1130660080180910E018823D1F0409880910D01FA
S11306708F5F80930D018530B1F4B2DE10920D01CD
S1130680909110019F5F9093100180910E0193301F
S113069010F48F5F01C0815080930E0104C098B1A3
S11306A081E0892788B980910A0190910101981706
S11306B091F08093010180910D018F5F853019F0D5
S11306C080930D01089510920D0181E080930E0135
S11306D01092100185CE089587B18F6087B98AB1D1
S11306E08B6F8AB984B1856C84B98DB18F608DB9F3
S11306F023982B9A24982C9A25982D9A589A58988E
S11307003DDE1092000110920D0110921B018FE149
S113071080931A011EDE10928000E1E8F0E08081EF
S11307208B6080838CE390E09093890080938800B1
S1130730EFE6F0E080818260808310920B0181E01B
S11307408093000110920E01C5DD17D28FE1A82E0F
S1130750C12CE12C00E010E022E049E250E06AE222
S113076070E08BE290E043DD67DF78941092100133
S113077070DE1F920F920FB60F9211242F933F93A6
S11307804F935F936F937F938F939F93AF93BF9395
S1130790EF93FF93809103018F5F80930301E1DD69
S11307A0EDDD80910301833009F443C028F48130E6
S11307B061F0823021F1A8C0853009F46CC008F4DE
S11307C052C0863009F483C09FC080910B018230EF
S11307D018F0843009F098C080910E01823008F03E
S11307E093C07398719A80910B01811105C0809117
S11307F00E01813009F463C08091040165C08091C9
S11308000B01823018F0843009F07EC080910E0113
S1130810823008F079C071982E9A80910B01811171
S113082005C080910E01813009F465C080910401F6
S113083067C080910B01982F9D7F19F0843009F0D7
S113084063C080910E018D7F09F05EC02E982F9AAF
S113085080910B01811104C080910E01823079F1E5
S113086080910A0131C080910B01982F9D7F11F076
S1130870843031F480910E018D7F11F42F985D9AAC
S113088080910B01811104C080910E01823099F195
S113089080910A0135C080910B018B7FA9F580916D
S11308A00E01833011F081112FC05D98729A8091EE
S11308B00B01811107C080910E01833019F48091DE
S11308C0050102C080910F016AE08CD11CC08091A7
S11308D00B018B7FC9F480910E01833011F08111DB
S11308E013C07298739A80910B01811107C0809193
S11308F00E01833019F48091050102C080910F012B
S11309006AE070D1892F45DD80910301863089F436
S11309101092030180911B0191E0980F90931B01A9
S1130920843639F480910001813009F485DE109217
S11309301B01FF91EF91BF91AF919F918F917F9197
S11309406F915F914F913F912F910F900FBE0F9038
S11309501F901895CF93DF93DC01FB013FB7F89408
S11309608C91822B8C938081822B80839C91822F0B
S1130970809598239C93CFEAD4E02197F1F700C0A7
S1130980000090818923808387EC90E00197F1F740
S113099000C00000EA018881CFE8D1E02197F1F797
S11309A000C000009C91922B9C939081922B908389
S11309B0EFEAF4E03197F1F700C000003FBF2823CD
S11309C081E009F480E0DF91CF9108950F93FC0159
S11309D09FB7F8948081822B8083DB018C91822BDA
S11309E08C938081322F309583238083002321F0E0
S11309F0B5E1BA95F1F703C085ED8A95F1F70000EA
S1130A008081282B2083002321F0A5EDAA95F1F7FE
S1130A1003C0B5E0BA95F1F700009FBF81E0011172
S1130A2001C080E00F9108957F928F929F92AF92C0
S1130A30BF92CF92DF92EF92FF920F931F93CF93C7
S1130A40DF936C015B014A01E22E702EFFB6F8942D
S1130A50C8E0D0E011E0072D01232E2DA401B5013B
S1130A60C601B4DF110F2197B1F7FFBEDF91CF911B
S1130A701F910F91FF90EF90DF90CF90BF90AF90B8
S1130A809F908F907F900895DC01FB013FB7F8940D
S1130A908C91822B8C938081822B80838C91922FDA
S1130AA0909589238C9385E08A95F1F700008081E5
S1130AB0982390839DE09A95F1F70000FA018081D4
S1130AC0F0EAFA95F1F73FBF282381E009F480E0CA
S1130AD008958F929F92AF92BF92CF92DF92EF923E
S1130AE0FF920F931F93CF93DF936C015B014A0135
S1130AF0E22EFFB6F89408E010E0D1E0C0E02E2D1D
S1130B00A401B501C601C0DF8D9FC0011124C82B0B
S1130B10DD0F0150110999F7FFBE8C2FDF91CF91A2
S1130B201F910F91FF90EF90DF90CF90BF90AF9007
S1130B309F908F900895282F20779AE0299F900105
S1130B40112494E0359527959A95E1F78F70820FDB
S1130B50089540E050E0E0E0FAE06F2F43D0292F01
S1130B60042E01C0220F0A94EAF7E22B4C5F5F4F78
S1130B704031510591F78E2F0895B0DB80EDBCDB39
S1130B808EE0BADB80E2B8DB80E0B6DBB1CBCF939A
S1130B90DF93EC01A3DB80EDAFDB80E0ADDB9EDB1C
S1130BA081EDAADBC2DBC7DF8883BFDBC4DF8983B7
S1130BB0C6DBC1DF8A83DF91CF919ACBCF93DF93DA
S1130BC0EC018CDB80ED98DB80E096DB8881C1DF73
S1130BD093DB8981BEDF90DB8A81BBDF8DDBDF9114
S1130BE0CF9186CB991B79E004C0991F961708F022
S1130BF0961B881F7A95C9F7809508950024A7FD50
S1130C0000942A17300540055005600570058005DD
S1130C1090050895262FF999FECF1FBA92BD81BD84
S1130C2020BD0FB6F894FA9AF99A0FBE019608956A
S1070C30F894FFCF62
S9030000FC
